{
  "_format": "hh-sol-artifact-1",
  "contractName": "SocialNetwork",
  "sourceName": "contracts/Contract.sol",
  "abi": [
    {
      "anonymous": false,
      "inputs": [
        {
          "indexed": true,
          "internalType": "address",
          "name": "user",
          "type": "address"
        },
        {
          "indexed": false,
          "internalType": "uint256",
          "name": "newStatus",
          "type": "uint256"
        }
      ],
      "name": "ActivityStatusChanged",
      "type": "event"
    },
    {
      "anonymous": false,
      "inputs": [
        {
          "indexed": true,
          "internalType": "address",
          "name": "follower",
          "type": "address"
        },
        {
          "indexed": true,
          "internalType": "address",
          "name": "followee",
          "type": "address"
        }
      ],
      "name": "Follow",
      "type": "event"
    },
    {
      "anonymous": false,
      "inputs": [
        {
          "indexed": true,
          "internalType": "address",
          "name": "from",
          "type": "address"
        },
        {
          "indexed": true,
          "internalType": "address",
          "name": "to",
          "type": "address"
        },
        {
          "indexed": false,
          "internalType": "string",
          "name": "message",
          "type": "string"
        }
      ],
      "name": "NewMessage",
      "type": "event"
    },
    {
      "anonymous": false,
      "inputs": [
        {
          "indexed": false,
          "internalType": "uint256",
          "name": "postId",
          "type": "uint256"
        },
        {
          "indexed": true,
          "internalType": "address",
          "name": "author",
          "type": "address"
        },
        {
          "indexed": false,
          "internalType": "string",
          "name": "content",
          "type": "string"
        },
        {
          "indexed": false,
          "internalType": "string",
          "name": "imageURL",
          "type": "string"
        },
        {
          "indexed": false,
          "internalType": "uint256",
          "name": "timestamp",
          "type": "uint256"
        }
      ],
      "name": "NewPost",
      "type": "event"
    },
    {
      "inputs": [
        {
          "internalType": "address",
          "name": "",
          "type": "address"
        }
      ],
      "name": "activityStatus",
      "outputs": [
        {
          "internalType": "uint256",
          "name": "",
          "type": "uint256"
        }
      ],
      "stateMutability": "view",
      "type": "function"
    },
    {
      "inputs": [
        {
          "internalType": "string",
          "name": "_username",
          "type": "string"
        },
        {
          "internalType": "string",
          "name": "_status",
          "type": "string"
        }
      ],
      "name": "createProfile",
      "outputs": [],
      "stateMutability": "nonpayable",
      "type": "function"
    },
    {
      "inputs": [
        {
          "internalType": "address",
          "name": "_profile",
          "type": "address"
        }
      ],
      "name": "follow",
      "outputs": [],
      "stateMutability": "nonpayable",
      "type": "function"
    },
    {
      "inputs": [],
      "name": "getActivityStatus",
      "outputs": [
        {
          "internalType": "uint256",
          "name": "",
          "type": "uint256"
        }
      ],
      "stateMutability": "view",
      "type": "function"
    },
    {
      "inputs": [
        {
          "internalType": "address",
          "name": "_profile",
          "type": "address"
        }
      ],
      "name": "getFollowers",
      "outputs": [
        {
          "internalType": "address[]",
          "name": "",
          "type": "address[]"
        }
      ],
      "stateMutability": "view",
      "type": "function"
    },
    {
      "inputs": [
        {
          "internalType": "address",
          "name": "_profile",
          "type": "address"
        }
      ],
      "name": "getFollowing",
      "outputs": [
        {
          "internalType": "address[]",
          "name": "",
          "type": "address[]"
        }
      ],
      "stateMutability": "view",
      "type": "function"
    },
    {
      "inputs": [],
      "name": "getMessages",
      "outputs": [
        {
          "internalType": "string",
          "name": "",
          "type": "string"
        }
      ],
      "stateMutability": "view",
      "type": "function"
    },
    {
      "inputs": [
        {
          "internalType": "address",
          "name": "_profile",
          "type": "address"
        }
      ],
      "name": "getPosts",
      "outputs": [
        {
          "components": [
            {
              "internalType": "uint256",
              "name": "id",
              "type": "uint256"
            },
            {
              "internalType": "address",
              "name": "author",
              "type": "address"
            },
            {
              "internalType": "string",
              "name": "content",
              "type": "string"
            },
            {
              "internalType": "string",
              "name": "imageURL",
              "type": "string"
            },
            {
              "internalType": "uint256",
              "name": "timestamp",
              "type": "uint256"
            }
          ],
          "internalType": "struct SocialNetwork.Post[]",
          "name": "",
          "type": "tuple[]"
        }
      ],
      "stateMutability": "view",
      "type": "function"
    },
    {
      "inputs": [
        {
          "internalType": "address",
          "name": "_profile",
          "type": "address"
        }
      ],
      "name": "getStatus",
      "outputs": [
        {
          "internalType": "string",
          "name": "",
          "type": "string"
        }
      ],
      "stateMutability": "view",
      "type": "function"
    },
    {
      "inputs": [
        {
          "internalType": "address",
          "name": "",
          "type": "address"
        },
        {
          "internalType": "address",
          "name": "",
          "type": "address"
        }
      ],
      "name": "isFollowing",
      "outputs": [
        {
          "internalType": "bool",
          "name": "",
          "type": "bool"
        }
      ],
      "stateMutability": "view",
      "type": "function"
    },
    {
      "inputs": [],
      "name": "postCount",
      "outputs": [
        {
          "internalType": "uint256",
          "name": "",
          "type": "uint256"
        }
      ],
      "stateMutability": "view",
      "type": "function"
    },
    {
      "inputs": [
        {
          "internalType": "address",
          "name": "",
          "type": "address"
        }
      ],
      "name": "profiles",
      "outputs": [
        {
          "internalType": "string",
          "name": "username",
          "type": "string"
        },
        {
          "internalType": "string",
          "name": "status",
          "type": "string"
        },
        {
          "internalType": "string",
          "name": "image",
          "type": "string"
        },
        {
          "internalType": "uint256",
          "name": "followersCount",
          "type": "uint256"
        },
        {
          "internalType": "uint256",
          "name": "followingCount",
          "type": "uint256"
        }
      ],
      "stateMutability": "view",
      "type": "function"
    },
    {
      "inputs": [
        {
          "internalType": "address",
          "name": "_to",
          "type": "address"
        },
        {
          "internalType": "string",
          "name": "_message",
          "type": "string"
        }
      ],
      "name": "sendMessage",
      "outputs": [],
      "stateMutability": "nonpayable",
      "type": "function"
    },
    {
      "inputs": [
        {
          "internalType": "uint256",
          "name": "_status",
          "type": "uint256"
        }
      ],
      "name": "setActivityStatus",
      "outputs": [],
      "stateMutability": "nonpayable",
      "type": "function"
    },
    {
      "inputs": [
        {
          "internalType": "string",
          "name": "_status",
          "type": "string"
        }
      ],
      "name": "updateStatus",
      "outputs": [],
      "stateMutability": "nonpayable",
      "type": "function"
    },
    {
      "inputs": [
        {
          "internalType": "string",
          "name": "_content",
          "type": "string"
        },
        {
          "internalType": "string",
          "name": "_imageURL",
          "type": "string"
        }
      ],
      "name": "uploadPost",
      "outputs": [],
      "stateMutability": "nonpayable",
      "type": "function"
    },
    {
      "inputs": [
        {
          "internalType": "address",
          "name": "",
          "type": "address"
        }
      ],
      "name": "userMessages",
      "outputs": [
        {
          "internalType": "string",
          "name": "",
          "type": "string"
        }
      ],
      "stateMutability": "view",
      "type": "function"
    },
    {
      "inputs": [
        {
          "internalType": "address",
          "name": "",
          "type": "address"
        },
        {
          "internalType": "uint256",
          "name": "",
          "type": "uint256"
        }
      ],
      "name": "userPosts",
      "outputs": [
        {
          "internalType": "uint256",
          "name": "id",
          "type": "uint256"
        },
        {
          "internalType": "address",
          "name": "author",
          "type": "address"
        },
        {
          "internalType": "string",
          "name": "content",
          "type": "string"
        },
        {
          "internalType": "string",
          "name": "imageURL",
          "type": "string"
        },
        {
          "internalType": "uint256",
          "name": "timestamp",
          "type": "uint256"
        }
      ],
      "stateMutability": "view",
      "type": "function"
    }
  ],
  "bytecode": "0x608060405234801561001057600080fd5b50612859806100206000396000f3fe608060405234801561001057600080fd5b50600436106101165760003560e01c806399ec3a42116100a2578063bbe1562711610071578063bbe1562714610307578063c2fe20221461033b578063d8236dff1461036b578063de6f24bb1461039b578063ea9108fc146103b757610116565b806399ec3a421461026f578063b19de0531461029f578063b58c4754146102bb578063ba1feb8a146102eb57610116565b80634caf9d0b116100e95780634caf9d0b146101a15780634dbf27cc146101d15780635ff6cbf3146101ed5780636cd947ee1461020b5780638064d1491461023b57610116565b80630cb1c7ee1461011b57806317906c2e146101375780632c2159981461015557806330ccebb514610171575b600080fd5b61013560048036038101906101309190611b61565b6103d5565b005b61013f61060d565b60405161014c9190611bf2565b60405180910390f35b61016f600480360381019061016a9190611c0d565b610613565b005b61018b60048036038101906101869190611cb4565b610743565b6040516101989190611d60565b60405180910390f35b6101bb60048036038101906101b69190611cb4565b610816565b6040516101c89190611f29565b60405180910390f35b6101eb60048036038101906101e69190611cb4565b610a42565b005b6101f5610eee565b6040516102029190611d60565b60405180910390f35b61022560048036038101906102209190611cb4565b610fbd565b6040516102329190611d60565b60405180910390f35b61025560048036038101906102509190611f77565b61105d565b604051610266959493929190611fc6565b60405180910390f35b61028960048036038101906102849190612027565b6111e0565b6040516102969190612082565b60405180910390f35b6102b960048036038101906102b4919061209d565b61120f565b005b6102d560048036038101906102d09190611cb4565b611334565b6040516102e29190611bf2565b60405180910390f35b61030560048036038101906103009190611b61565b61134c565b005b610321600480360381019061031c9190611cb4565b61147e565b6040516103329594939291906120ca565b60405180910390f35b61035560048036038101906103509190611cb4565b61164c565b60405161036291906121e1565b60405180910390f35b61038560048036038101906103809190611cb4565b61171b565b60405161039291906121e1565b60405180910390f35b6103b560048036038101906103b09190612203565b6117ea565b005b6103bf6119c0565b6040516103cc9190611bf2565b60405180910390f35b60008060003373ffffffffffffffffffffffffffffffffffffffff1673ffffffffffffffffffffffffffffffffffffffff16815260200190815260200160002060000180546104239061228e565b905011610465576040517f08c379a000000000000000000000000000000000000000000000000000000000815260040161045c9061230b565b60405180910390fd5b600560008154809291906104789061235a565b919050555060006040518060a0016040528060055481526020013373ffffffffffffffffffffffffffffffffffffffff168152602001848152602001838152602001428152509050600160003373ffffffffffffffffffffffffffffffffffffffff1673ffffffffffffffffffffffffffffffffffffffff1681526020019081526020016000208190806001815401808255809150506001900390600052602060002090600502016000909190919091506000820151816000015560208201518160010160006101000a81548173ffffffffffffffffffffffffffffffffffffffff021916908373ffffffffffffffffffffffffffffffffffffffff160217905550604082015181600201908161058f919061254e565b5060608201518160030190816105a5919061254e565b506080820151816004015550503373ffffffffffffffffffffffffffffffffffffffff167ff821f8b74c573338641e8e41fc20a666323295590e759b59b02c92ea10f408526005548585426040516106009493929190612620565b60405180910390a2505050565b60055481565b60008060003373ffffffffffffffffffffffffffffffffffffffff1673ffffffffffffffffffffffffffffffffffffffff16815260200190815260200160002060000180546106619061228e565b9050116106a3576040517f08c379a000000000000000000000000000000000000000000000000000000000815260040161069a9061230b565b60405180910390fd5b806000803373ffffffffffffffffffffffffffffffffffffffff1673ffffffffffffffffffffffffffffffffffffffff16815260200190815260200160002060010190816106f1919061254e565b503373ffffffffffffffffffffffffffffffffffffffff167f3a551541f73af3bcec5cfe60f78b183df4e360b2c1b1573e238ad2d856e63e25426040516107389190611bf2565b60405180910390a250565b60606000808373ffffffffffffffffffffffffffffffffffffffff1673ffffffffffffffffffffffffffffffffffffffff16815260200190815260200160002060010180546107919061228e565b80601f01602080910402602001604051908101604052809291908181526020018280546107bd9061228e565b801561080a5780601f106107df5761010080835404028352916020019161080a565b820191906000526020600020905b8154815290600101906020018083116107ed57829003601f168201915b50505050509050919050565b6060600160008373ffffffffffffffffffffffffffffffffffffffff1673ffffffffffffffffffffffffffffffffffffffff168152602001908152602001600020805480602002602001604051908101604052809291908181526020016000905b82821015610a3757838290600052602060002090600502016040518060a0016040529081600082015481526020016001820160009054906101000a900473ffffffffffffffffffffffffffffffffffffffff1673ffffffffffffffffffffffffffffffffffffffff1673ffffffffffffffffffffffffffffffffffffffff16815260200160028201805461090a9061228e565b80601f01602080910402602001604051908101604052809291908181526020018280546109369061228e565b80156109835780601f1061095857610100808354040283529160200191610983565b820191906000526020600020905b81548152906001019060200180831161096657829003601f168201915b5050505050815260200160038201805461099c9061228e565b80601f01602080910402602001604051908101604052809291908181526020018280546109c89061228e565b8015610a155780601f106109ea57610100808354040283529160200191610a15565b820191906000526020600020905b8154815290600101906020018083116109f857829003601f168201915b5050505050815260200160048201548152505081526020019060010190610877565b505050509050919050565b60008060003373ffffffffffffffffffffffffffffffffffffffff1673ffffffffffffffffffffffffffffffffffffffff1681526020019081526020016000206000018054610a909061228e565b905011610ad2576040517f08c379a0000000000000000000000000000000000000000000000000000000008152600401610ac99061230b565b60405180910390fd5b8073ffffffffffffffffffffffffffffffffffffffff163373ffffffffffffffffffffffffffffffffffffffff1603610b40576040517f08c379a0000000000000000000000000000000000000000000000000000000008152600401610b37906126bf565b60405180910390fd5b600260003373ffffffffffffffffffffffffffffffffffffffff1673ffffffffffffffffffffffffffffffffffffffff16815260200190815260200160002060008273ffffffffffffffffffffffffffffffffffffffff1673ffffffffffffffffffffffffffffffffffffffff16815260200190815260200160002060009054906101000a900460ff1615610c0a576040517f08c379a0000000000000000000000000000000000000000000000000000000008152600401610c019061272b565b60405180910390fd5b6000808273ffffffffffffffffffffffffffffffffffffffff1673ffffffffffffffffffffffffffffffffffffffff168152602001908152602001600020600501339080600181540180825580915050600190039060005260206000200160009091909190916101000a81548173ffffffffffffffffffffffffffffffffffffffff021916908373ffffffffffffffffffffffffffffffffffffffff1602179055506000808273ffffffffffffffffffffffffffffffffffffffff1673ffffffffffffffffffffffffffffffffffffffff1681526020019081526020016000206003016000815480929190610cfe9061235a565b91905055506000803373ffffffffffffffffffffffffffffffffffffffff1673ffffffffffffffffffffffffffffffffffffffff168152602001908152602001600020600601819080600181540180825580915050600190039060005260206000200160009091909190916101000a81548173ffffffffffffffffffffffffffffffffffffffff021916908373ffffffffffffffffffffffffffffffffffffffff1602179055506000803373ffffffffffffffffffffffffffffffffffffffff1673ffffffffffffffffffffffffffffffffffffffff1681526020019081526020016000206004016000815480929190610df79061235a565b91905055506001600260003373ffffffffffffffffffffffffffffffffffffffff1673ffffffffffffffffffffffffffffffffffffffff16815260200190815260200160002060008373ffffffffffffffffffffffffffffffffffffffff1673ffffffffffffffffffffffffffffffffffffffff16815260200190815260200160002060006101000a81548160ff0219169083151502179055508073ffffffffffffffffffffffffffffffffffffffff163373ffffffffffffffffffffffffffffffffffffffff167fbccc71dc7842b86291138666aa18e133ee6d41aa71e6d7c650debad1a057663560405160405180910390a350565b6060600360003373ffffffffffffffffffffffffffffffffffffffff1673ffffffffffffffffffffffffffffffffffffffff1681526020019081526020016000208054610f3a9061228e565b80601f0160208091040260200160405190810160405280929190818152602001828054610f669061228e565b8015610fb35780601f10610f8857610100808354040283529160200191610fb3565b820191906000526020600020905b815481529060010190602001808311610f9657829003601f168201915b5050505050905090565b60036020528060005260406000206000915090508054610fdc9061228e565b80601f01602080910402602001604051908101604052809291908181526020018280546110089061228e565b80156110555780601f1061102a57610100808354040283529160200191611055565b820191906000526020600020905b81548152906001019060200180831161103857829003601f168201915b505050505081565b6001602052816000526040600020818154811061107957600080fd5b9060005260206000209060050201600091509150508060000154908060010160009054906101000a900473ffffffffffffffffffffffffffffffffffffffff16908060020180546110c99061228e565b80601f01602080910402602001604051908101604052809291908181526020018280546110f59061228e565b80156111425780601f1061111757610100808354040283529160200191611142565b820191906000526020600020905b81548152906001019060200180831161112557829003601f168201915b5050505050908060030180546111579061228e565b80601f01602080910402602001604051908101604052809291908181526020018280546111839061228e565b80156111d05780601f106111a5576101008083540402835291602001916111d0565b820191906000526020600020905b8154815290600101906020018083116111b357829003601f168201915b5050505050908060040154905085565b60026020528160005260406000206020528060005260406000206000915091509054906101000a900460ff1681565b60008060003373ffffffffffffffffffffffffffffffffffffffff1673ffffffffffffffffffffffffffffffffffffffff168152602001908152602001600020600001805461125d9061228e565b90501161129f576040517f08c379a00000000000000000000000000000000000000000000000000000000081526004016112969061230b565b60405180910390fd5b80600460003373ffffffffffffffffffffffffffffffffffffffff1673ffffffffffffffffffffffffffffffffffffffff168152602001908152602001600020819055503373ffffffffffffffffffffffffffffffffffffffff167f3a551541f73af3bcec5cfe60f78b183df4e360b2c1b1573e238ad2d856e63e25826040516113299190611bf2565b60405180910390a250565b60046020528060005260406000206000915090505481565b60008060003373ffffffffffffffffffffffffffffffffffffffff1673ffffffffffffffffffffffffffffffffffffffff168152602001908152602001600020600001805461139a9061228e565b9050146113dc576040517f08c379a00000000000000000000000000000000000000000000000000000000081526004016113d390612797565b60405180910390fd5b816000803373ffffffffffffffffffffffffffffffffffffffff1673ffffffffffffffffffffffffffffffffffffffff168152602001908152602001600020600001908161142a919061254e565b50806000803373ffffffffffffffffffffffffffffffffffffffff1673ffffffffffffffffffffffffffffffffffffffff1681526020019081526020016000206001019081611479919061254e565b505050565b60006020528060005260406000206000915090508060000180546114a19061228e565b80601f01602080910402602001604051908101604052809291908181526020018280546114cd9061228e565b801561151a5780601f106114ef5761010080835404028352916020019161151a565b820191906000526020600020905b8154815290600101906020018083116114fd57829003601f168201915b50505050509080600101805461152f9061228e565b80601f016020809104026020016040519081016040528092919081815260200182805461155b9061228e565b80156115a85780601f1061157d576101008083540402835291602001916115a8565b820191906000526020600020905b81548152906001019060200180831161158b57829003601f168201915b5050505050908060020180546115bd9061228e565b80601f01602080910402602001604051908101604052809291908181526020018280546115e99061228e565b80156116365780601f1061160b57610100808354040283529160200191611636565b820191906000526020600020905b81548152906001019060200180831161161957829003601f168201915b5050505050908060030154908060040154905085565b60606000808373ffffffffffffffffffffffffffffffffffffffff1673ffffffffffffffffffffffffffffffffffffffff16815260200190815260200160002060050180548060200260200160405190810160405280929190818152602001828054801561170f57602002820191906000526020600020905b8160009054906101000a900473ffffffffffffffffffffffffffffffffffffffff1673ffffffffffffffffffffffffffffffffffffffff16815260200190600101908083116116c5575b50505050509050919050565b60606000808373ffffffffffffffffffffffffffffffffffffffff1673ffffffffffffffffffffffffffffffffffffffff1681526020019081526020016000206006018054806020026020016040519081016040528092919081815260200182805480156117de57602002820191906000526020600020905b8160009054906101000a900473ffffffffffffffffffffffffffffffffffffffff1673ffffffffffffffffffffffffffffffffffffffff1681526020019060010190808311611794575b50505050509050919050565b60008060003373ffffffffffffffffffffffffffffffffffffffff1673ffffffffffffffffffffffffffffffffffffffff16815260200190815260200160002060000180546118389061228e565b90501161187a576040517f08c379a00000000000000000000000000000000000000000000000000000000081526004016118719061230b565b60405180910390fd5b60008060008473ffffffffffffffffffffffffffffffffffffffff1673ffffffffffffffffffffffffffffffffffffffff16815260200190815260200160002060000180546118c89061228e565b90501161190a576040517f08c379a000000000000000000000000000000000000000000000000000000000815260040161190190612803565b60405180910390fd5b80600360008473ffffffffffffffffffffffffffffffffffffffff1673ffffffffffffffffffffffffffffffffffffffff1681526020019081526020016000209081611956919061254e565b508173ffffffffffffffffffffffffffffffffffffffff163373ffffffffffffffffffffffffffffffffffffffff167fc0e964a89ae4af54eaf553b02f07849ce6ddc028e52aec665236032bdd33a522836040516119b49190611d60565b60405180910390a35050565b6000600460003373ffffffffffffffffffffffffffffffffffffffff1673ffffffffffffffffffffffffffffffffffffffff16815260200190815260200160002054905090565b6000604051905090565b600080fd5b600080fd5b600080fd5b600080fd5b6000601f19601f8301169050919050565b7f4e487b7100000000000000000000000000000000000000000000000000000000600052604160045260246000fd5b611a6e82611a25565b810181811067ffffffffffffffff82111715611a8d57611a8c611a36565b5b80604052505050565b6000611aa0611a07565b9050611aac8282611a65565b919050565b600067ffffffffffffffff821115611acc57611acb611a36565b5b611ad582611a25565b9050602081019050919050565b82818337600083830152505050565b6000611b04611aff84611ab1565b611a96565b905082815260208101848484011115611b2057611b1f611a20565b5b611b2b848285611ae2565b509392505050565b600082601f830112611b4857611b47611a1b565b5b8135611b58848260208601611af1565b91505092915050565b60008060408385031215611b7857611b77611a11565b5b600083013567ffffffffffffffff811115611b9657611b95611a16565b5b611ba285828601611b33565b925050602083013567ffffffffffffffff811115611bc357611bc2611a16565b5b611bcf85828601611b33565b9150509250929050565b6000819050919050565b611bec81611bd9565b82525050565b6000602082019050611c076000830184611be3565b92915050565b600060208284031215611c2357611c22611a11565b5b600082013567ffffffffffffffff811115611c4157611c40611a16565b5b611c4d84828501611b33565b91505092915050565b600073ffffffffffffffffffffffffffffffffffffffff82169050919050565b6000611c8182611c56565b9050919050565b611c9181611c76565b8114611c9c57600080fd5b50565b600081359050611cae81611c88565b92915050565b600060208284031215611cca57611cc9611a11565b5b6000611cd884828501611c9f565b91505092915050565b600081519050919050565b600082825260208201905092915050565b60005b83811015611d1b578082015181840152602081019050611d00565b60008484015250505050565b6000611d3282611ce1565b611d3c8185611cec565b9350611d4c818560208601611cfd565b611d5581611a25565b840191505092915050565b60006020820190508181036000830152611d7a8184611d27565b905092915050565b600081519050919050565b600082825260208201905092915050565b6000819050602082019050919050565b611db781611bd9565b82525050565b611dc681611c76565b82525050565b600082825260208201905092915050565b6000611de882611ce1565b611df28185611dcc565b9350611e02818560208601611cfd565b611e0b81611a25565b840191505092915050565b600060a083016000830151611e2e6000860182611dae565b506020830151611e416020860182611dbd565b5060408301518482036040860152611e598282611ddd565b91505060608301518482036060860152611e738282611ddd565b9150506080830151611e886080860182611dae565b508091505092915050565b6000611e9f8383611e16565b905092915050565b6000602082019050919050565b6000611ebf82611d82565b611ec98185611d8d565b935083602082028501611edb85611d9e565b8060005b85811015611f175784840389528151611ef88582611e93565b9450611f0383611ea7565b925060208a01995050600181019050611edf565b50829750879550505050505092915050565b60006020820190508181036000830152611f438184611eb4565b905092915050565b611f5481611bd9565b8114611f5f57600080fd5b50565b600081359050611f7181611f4b565b92915050565b60008060408385031215611f8e57611f8d611a11565b5b6000611f9c85828601611c9f565b9250506020611fad85828601611f62565b9150509250929050565b611fc081611c76565b82525050565b600060a082019050611fdb6000830188611be3565b611fe86020830187611fb7565b8181036040830152611ffa8186611d27565b9050818103606083015261200e8185611d27565b905061201d6080830184611be3565b9695505050505050565b6000806040838503121561203e5761203d611a11565b5b600061204c85828601611c9f565b925050602061205d85828601611c9f565b9150509250929050565b60008115159050919050565b61207c81612067565b82525050565b60006020820190506120976000830184612073565b92915050565b6000602082840312156120b3576120b2611a11565b5b60006120c184828501611f62565b91505092915050565b600060a08201905081810360008301526120e48188611d27565b905081810360208301526120f88187611d27565b9050818103604083015261210c8186611d27565b905061211b6060830185611be3565b6121286080830184611be3565b9695505050505050565b600081519050919050565b600082825260208201905092915050565b6000819050602082019050919050565b600061216a8383611dbd565b60208301905092915050565b6000602082019050919050565b600061218e82612132565b612198818561213d565b93506121a38361214e565b8060005b838110156121d45781516121bb888261215e565b97506121c683612176565b9250506001810190506121a7565b5085935050505092915050565b600060208201905081810360008301526121fb8184612183565b905092915050565b6000806040838503121561221a57612219611a11565b5b600061222885828601611c9f565b925050602083013567ffffffffffffffff81111561224957612248611a16565b5b61225585828601611b33565b9150509250929050565b7f4e487b7100000000000000000000000000000000000000000000000000000000600052602260045260246000fd5b600060028204905060018216806122a657607f821691505b6020821081036122b9576122b861225f565b5b50919050565b7f50726f66696c6520646f6573206e6f7420657869737400000000000000000000600082015250565b60006122f5601683611cec565b9150612300826122bf565b602082019050919050565b60006020820190508181036000830152612324816122e8565b9050919050565b7f4e487b7100000000000000000000000000000000000000000000000000000000600052601160045260246000fd5b600061236582611bd9565b91507fffffffffffffffffffffffffffffffffffffffffffffffffffffffffffffffff82036123975761239661232b565b5b600182019050919050565b60008190508160005260206000209050919050565b60006020601f8301049050919050565b600082821b905092915050565b6000600883026124047fffffffffffffffffffffffffffffffffffffffffffffffffffffffffffffffff826123c7565b61240e86836123c7565b95508019841693508086168417925050509392505050565b6000819050919050565b600061244b61244661244184611bd9565b612426565b611bd9565b9050919050565b6000819050919050565b61246583612430565b61247961247182612452565b8484546123d4565b825550505050565b600090565b61248e612481565b61249981848461245c565b505050565b5b818110156124bd576124b2600082612486565b60018101905061249f565b5050565b601f821115612502576124d3816123a2565b6124dc846123b7565b810160208510156124eb578190505b6124ff6124f7856123b7565b83018261249e565b50505b505050565b600082821c905092915050565b600061252560001984600802612507565b1980831691505092915050565b600061253e8383612514565b9150826002028217905092915050565b61255782611ce1565b67ffffffffffffffff8111156125705761256f611a36565b5b61257a825461228e565b6125858282856124c1565b600060209050601f8311600181146125b857600084156125a6578287015190505b6125b08582612532565b865550612618565b601f1984166125c6866123a2565b60005b828110156125ee578489015182556001820191506020850194506020810190506125c9565b8683101561260b5784890151612607601f891682612514565b8355505b6001600288020188555050505b505050505050565b60006080820190506126356000830187611be3565b81810360208301526126478186611d27565b9050818103604083015261265b8185611d27565b905061266a6060830184611be3565b95945050505050565b7f43616e6e6f7420666f6c6c6f7720796f757273656c6600000000000000000000600082015250565b60006126a9601683611cec565b91506126b482612673565b602082019050919050565b600060208201905081810360008301526126d88161269c565b9050919050565b7f416c726561647920666f6c6c6f77696e67000000000000000000000000000000600082015250565b6000612715601183611cec565b9150612720826126df565b602082019050919050565b6000602082019050818103600083015261274481612708565b9050919050565b7f50726f66696c6520616c72656164792065786973747300000000000000000000600082015250565b6000612781601683611cec565b915061278c8261274b565b602082019050919050565b600060208201905081810360008301526127b081612774565b9050919050565b7f526563697069656e742070726f66696c6520646f6573206e6f74206578697374600082015250565b60006127ed602083611cec565b91506127f8826127b7565b602082019050919050565b6000602082019050818103600083015261281c816127e0565b905091905056fea26469706673582212209c23db2ecf66006de98cc5f2f7596aced9373b5e6e91e3556269052b7f2c2c5c64736f6c63430008130033",
  "linkReferences": {},
  "deployedLinkReferences": {}
}